:020000040800F2
:10000000D00600203502000857160008B11100087C
:10001000551600082B0400084918000800000000CD
:100020000000000000000000000000009917000818
:100030002D04000800000000591600089B17000856
:100040004F0200084F0200084F0200084F0200084C
:100050004F0200084F0200084F0200084F0200083C
:100060004F0200084F0200084F0200084F0200082C
:100070004F0200084F0200084F0200084F0200081C
:100080004F0200084F0200084F0200080000000065
:100090000000000000000000000000004F02000807
:1000A0004F0200084F0200084F0200084F020008EC
:1000B0004F0200084F0200084F0200084F020008DC
:1000C0004F0200084F0200084F0200084F020008CC
:1000D0004F0200084F0200084F0200080000000015
:1000E0004F0200084F0200084F0200080000000005
:1000F0000000000000000000000000004F020008A7
:10010000000000004F0200084F0200084F020008E4
:1001100000000000000000000000000000000000DF
:100120004F0200084F0200084F0200084F0200086B
:100130004F02000800000000000000000000000066
:100140000000000000000000000000004F02000856
:100150004F0200084F0200084F0200084F0200083B
:100160004F0200084F0200080000000000000000DD
:10017000000000000000000000000000000000007F
:10018000000000004F020008000000000000000016
:100190004F02000800F002F800F03CF80AA090E8D6
:1001A000000C82448344AAF10107DA4501D100F032
:1001B00031F8AFF2090EBAE80F0013F0010F18BFC3
:1001C000FB1A43F001031847641A0000841A000068
:1001D000103A24BF78C878C1FAD8520724BF30C873
:1001E00030C144BF04680C60704700000023002445
:1001F00000250026103A28BF78C1FBD8520728BF37
:1002000030C148BF0B6070471FB501F0F8FC1FBD3F
:1002100010B510BD00F0CFF81146FFF7F5FF01F063
:1002200025FB00F0EDF803B4FFF7F2FF03BC00F08C
:10023000F5F800000948804709480047FEE7FEE757
:10024000FEE7FEE7FEE7FEE7FEE7FEE7FEE7FEE786
:1002500004480549054A064B704700003918000854
:1002600095010008D0000020D0060020D002002018
:10027000D002002053EA020C00F069802DE9F04B17
:100280004FF00006002B1FBFB3FA83F503FA05F405
:1002900024FA05F65E4012BF1643B2FA82F502FA5E
:1002A00005F4C5F120051EBF22FA05FC44EA0C0442
:1002B000203556EA044C4FEA144418BF641C4FF032
:1002C00000084FF00009904271EB030C39D300296C
:1002D00019BFB1FA81F701FA07F6B0FA80F700FA10
:1002E00007F6C7F120071EBF20FA07FC46EA0C06F6
:1002F0002037B6FBF4FCA7EB0507103F07F01F0BF8
:10030000CBF120060CFA0BFB2CFA06F644BFB346E1
:100310000026202FA4BF5E464FF0000B5BEA060CC0
:1003200008BF4FF0010B19EB0B09ABFB027C48EB4C
:100330000608C01B06FB02CC0BFB03CC71EB0C01C7
:10034000C1E70B46024641464846BDE8F08B13B56F
:100350004FF000004FF00001AFF30080BDE81C40FB
:1003600070474FF0000200B5134694469646203978
:1003700022BFA0E80C50A0E80C50B1F12001BFF45E
:10038000F7AF090728BFA0E80C5048BF0CC05DF8C4
:1003900004EB890028BF40F8042B08BF704748BF12
:1003A00020F8022B11F0804F18BF00F8012B704786
:1003B000704770477047754600F02CF8AE46050050
:1003C0006946534620F00700854618B020B5FFF770
:1003D0003FFFBDE820404FF000064FF000074FF010
:1003E00000084FF0000B21F00701AC46ACE8C00953
:1003F000ACE8C009ACE8C009ACE8C0098D4670475C
:1004000010B50446AFF300802046BDE81040FFF76A
:100410000ABF0000004870476C0000200149182006
:10042000ABBEFEE7260002007047FEE7704772B6DB
:10043000FEE7000070B5044600F004F90546601CB4
:1004400002D004480078044400F0FCF8401BA042AD
:10045000FAD370BD080000202DE9F84FDFF8B8A1ED
:10046000002201240AF1040B03254FF00F090BF1C0
:10047000040E00BF0B6804FA02F63340B34273D196
:100480000F7907F00307012F01D0022F16D18768DB
:100490004FEA420805FA08FC27EA0C07D1F80CC01D
:1004A0000CFA08FC4CEA070CC0F808C04768B743D0
:1004B0000E79C6F3001696403E4346600E79F64329
:1004C000B6070DD0C768560005FA06FC27EA0C07E8
:1004D000D1F808C00CFA06FC4CEA070CC0F80CC0B6
:1004E0000E7906F00306022E10D1D60800EB86081E
:1004F000D8F8206057074FEAD76C09FA0CF7BE43CB
:100500000F6907FA0CF73743C8F8207006684FEAFE
:10051000420C05FA0CF7BE430F7907F0030707FA00
:100520000CF7374307604E6816F4403F6DD03B4EE2
:10053000376847F480473760366822F0030706F4CF
:1005400080460096364E07EB060CDCF808689707E5
:100550003F0F09FA07F826EA0806DFF8C880404589
:1005600003D14FF000081EE04FE0DFF8BC804045AB
:1005700002D14FF0010816E0DFF8B080404502D10B
:100580004FF002080FE0DFF8A880404502D14FF09D
:10059000030808E0DFF89C80404502D14FF00408D2
:1005A00001E04FF0070808FA07F848EA0608CCF817
:1005B0000888DAF800605746D1F804C09E435FEA25
:1005C000CC3C00D51E433E60DBF800605F46D1F8AE
:1005D00004C09E435FEA8C3C00D51E433E60DEF8BB
:1005E00000607746D1F804C09E435FEACC2C00D56A
:1005F0001E433E60084F0C373E68D1F804C09E434E
:100600005FEA8C2C00D51E433E60521C102AFFF47A
:1006100031AFBDE8F88F0000003C01404438024093
:100620000030014000000240000402400008024087
:10063000000C0240001002400AB1816170470904B9
:10064000FBE70000014880687047000008000020B8
:1006500070B5040025D094F83D00002520B984F839
:100660003C50204600F03EFA242084F83D002068EB
:10067000016821F0010101602068016841F4004136
:1006800001602068016821F40041016000F086FBF0
:100690004D4A6168914201D84C4900E04C4988427A
:1006A00001D2012070BD4B492368B0FBF1F15E68B7
:1006B00026F03F060E435E606368934206D94FF40E
:1006C000967359434FF47A73B1FBF3F12368491CD5
:1006D0001E6A26F03F06314319626168914210D8C4
:1006E0004900401EB0FBF1F2521CC2F30B02042A77
:1006F00001D2042022E0B0FBF1F0401CC0F30B005B
:100700001CE0A268F2B301EBC10303EB0116431E28
:10071000B3FBF6F35B1C43F480431B0549D092B353
:1007200001EBC10202EB0111401EB0FBF1F0401CD5
:10073000C0F30B0040F4804040F400402168CA69D7
:100740004CF6FF739A431043C861D4E90710014384
:100750002068026822F0C00211430160D4E903015D
:1007600001432068826848F2FF339A431143816055
:10077000D4E9050108432168CA6822F0FF0210434A
:10078000C86001E00EE016E02068016841F0010158
:1007900001602564202084F83D00256384F83E50E4
:1007A000002070BD01EB4106431EB3FBF6F35B1C5A
:1007B000B3E70120C2E701EB4101401EB0FBF1F0BD
:1007C000401CC0F30B00B7E7A086010080841E0028
:1007D00000093D0040420F002DE9F84F1F469046AA
:1007E0008A460446DDF82890FFF72CFF054694F86A
:1007F0003D00202875D1192301226C49204600951F
:1008000000F0D8FD0028F5D194F83C00012868D00C
:10081000012084F83C0020680168C90703D1016801
:1008200041F0010101602068016821F4006101606C
:10083000222084F83D00102084F83E000026266423
:10084000C4F824806785608D20855948E0622B4676
:100850004A465146204600F0C3FC002878D1208D3E
:10086000544F68B1012814D002282068016816D0BE
:1008700041F480610160206841698069009087E0EF
:100880002068416981690091016841F4007101604B
:100890007EE02068016821F480610160F0E721F4C6
:1008A000806101602068016841F40061E2E703288B
:1008B00048D801280AD0022814D04B4600223946D5
:1008C0002046009500F076FDD8BB27E02A46494631
:1008D000204600F0EEFDA0BB20680069616A087048
:1008E0004DE061E04B46002239462046009500F07D
:1008F00061FD30BB2068016841F40071016020682F
:100900000069616A0870606A401C6062218D491E3E
:100910002185618D491E618521682EE0206801686E
:1009200021F48061016020680069616A0870606A72
:10093000401C6062208D401E2085608D401E6085B9
:10094000D0E705E02A464946204600F0B2FD10B146
:100950000120BDE8F88F20680069616A0870606A4C
:10096000401C6062218D491E2185618D491E618573
:1009700021684A69D24352070AD409690170606A42
:10098000401C6062208D401E2085608D401E608569
:10099000208D00288BD1202084F83D0084F83E6013
:1009A00084F83C600020D4E70220D2E70200100067
:1009B0000000FFFF040001002DE9F84F1F4690469C
:1009C0008A460446DDF82890FFF73CFE054694F879
:1009D0003D0020287FD1192301224049204600955F
:1009E00000F0E8FC002876D194F83C00012872D091
:1009F000012084F83C0020680168C90703D1016820
:100A000041F0010101602068016821F4006101608A
:100A1000212084F83D00102084F83E000026266442
:100A2000C4F824806785608D20852D48E0622B46C0
:100A30004A465146204600F049FC90B92068416979
:100A40008069009036E02A464946204600F064FD61
:100A500050B1206C042804D12068016841F4007171
:100A600001600120BDE8F88F606A216800780861A4
:100A7000606A401C6062618D491E6185218D491E3E
:100A800089B2218522685369DB435B070BD451B1DE
:100A900000781061606A401C6062608D401E608555
:100AA000208D401E20852A464946204600F05CFCE9
:100AB0000028CED1208D0028C5D154F83D0B016807
:100AC00041F400710160202004F81E09E677667782
:100AD0000020C7E7FFE70220C4E700000200100083
:100AE0000000FFFF10B586B0044614216846FFF7EA
:100AF00038FC13492068884220D11248002102683E
:100B000042F002020260006800F002000590C0207E
:100B100000901220CDE901010320039004200490ED
:100B200069460948FFF798FC06481030016841F40F
:100B300000110160006800F40010059006B010BDBF
:100B400000540040303802400004024002488168EE
:100B50000278114481607047080000200B4810B5EE
:100B6000016841F400710160016841F48061016035
:100B7000016841F480710160032000F063F80020F7
:100B800000F006F800F024F8002010BD003C024000
:100B900070B50D4D04464FF47A712878B1FBF0F032
:100BA0000A490968B1FBF0F000F0EEFA48B9102CE0
:100BB00007D200222146501E00F024F800206C606D
:100BC00070BD012070BD000008000020140000204E
:100BD0000B4882B0016841F480410160006800F474
:100BE000804000900648001F016841F0805101607C
:100BF000006800F080500090072002B000F022B89A
:100C000044380240F0B40E4B1B680C46C3F3022379
:100C1000C3F10705042D00D90425191D072901D2A8
:100C2000002300E0DB1E012606FA05F1491E2140E3
:100C300099409E40761E16403143F0BC00F005BE40
:100C40000CED00E0064900F0070208684FF6FF03CC
:100C5000184040EA0220034A104308607047000031
:100C60000CED00E00000FA052DE9F0470E46050006
:100C700065D0DFF81481D8F80000F7B200F0070063
:100C8000B04207D288F80070D8F8000000F00700E2
:100C9000B04254D128683D4C810712D5400703D596
:100CA000206840F4E05020602878000703D52068D1
:100CB00040F4604020602068A96820F0F0000843FC
:100CC00020602878C0072DD030496868083901288D
:100CD00012D0022813D0032811D0096889070029EF
:100CE0002DDA216821F0030101432160FFF7AAFCFE
:100CF000814641F2883A0EE009688903EFE7096806
:100D00008901ECE7FFF79EFCA0EB0901514502D9F0
:100D10000320BDE8F0872068696800F00C00B0EBA4
:100D2000810FEFD1D8F80010404601F00701B14221
:100D300007D90770006800F00700B04201D0012019
:100D4000E7E72878400705D52068E96820F4E050F7
:100D5000084320602878000706D52068296920F418
:100D6000604040EAC100206000F028F82168084A8D
:100D7000C1F30311515CC840064908600648006889
:100D8000FFF706FF0020C4E7003C0240083802409D
:100D9000121C0008140000200C0000200448054923
:100DA00000680968044AC1F38221515CC840704759
:100DB0001400002008380240221C0008154810B515
:100DC000006810F00C02144813D04110042A0FD010
:100DD000082A0ED10F4C241F2268236802F03F021C
:100DE0005B0207D52068C0F38810A0FB010106E074
:100DF000084610BD2168C1F38811A1FB0001002342
:100E0000FFF738FA2168C1F30141491C4900B0FBE2
:100E1000F1F010BD083802400024F4002DE9F84F2D
:100E200004006ED02078DFF84C93C007A9F10405C8
:100E30004AD009F104000168C1F38101012908D0F9
:100E40000068C0F3810002280AD1D9F800004002EE
:100E500006D52868800337D560680028E1D033E0E4
:100E60006068B0F5803F10D0B0F5A02F286810D092
:100E700020F480302860286820F480202860606892
:100E8000A8B1FFF7DFFB06460DE0286840F480308C
:100E9000F4E740F480202860F7E700BFFFF7D2FBBB
:100EA000801B642873D828688003F7D50CE0FFF70F
:100EB000C9FB064605E000BFFFF7C4FB801B6428A2
:100EC000F0D828688003F7D42078DFF8AC82800758
:100ED0004FF0000A3ED5A748001D016811F00C0F25
:100EE00008D00068C0F3810002280BD1D9F80000B7
:100EF000400207D42868800716D5E068012800D191
:100F000012E033E1E068B8B10120C8F80000FFF753
:100F100099FB064605E000BFFFF794FB801B022803
:100F2000C0D828688007F7D52868216920F0F80024
:100F300040EAC10028600DE0C8F800A0FFF782FB7E
:100F4000064604E0FFF77EFB801B02281FD82868B6
:100F50008007F7D42078000722D5864F874861693B
:100F6000703771B101210160FFF76CFB064604E0A8
:100F7000FFF768FB801B022809D838688007F7D57F
:100F80000EE0C0F800A0FFF75DFB064605E082E03A
:100F9000FFF758FB801B02287DD838688007F7D4FC
:100FA0002078400768D5DFF8CCB100270BF13C0B67
:100FB000DBF80000C0000BD4DBF8001041F08051DA
:100FC000CBF80010DBF80000012700F08050009003
:100FD0006B4E3068C00510D4306840F480703060CB
:100FE000FFF730FB009005E0FFF72CFB0099401A5B
:100FF000022850D83068C005F6D55E4EA0686C3621
:1010000001280FD00528306810D020F00100306092
:10101000306820F004003060A068B8B1FFF712FB20
:1010200000900FE0306840F00100F4E740F0040069
:101030003060F7E7FFF706FB0099411A41F288306C
:10104000814266D830688007F4D50EE0FFF7FAFADF
:10105000009007E0FFF7F6FA0099411A41F2883054
:10106000814256D830688007F4D42FB1DBF80010E5
:1010700021F08051CBF80010A069C8B33D49091D8B
:101080000968C1F3810102294AD00228504607D0DD
:10109000C8F8600000E03CE0FFF7D4FA04463BE00B
:1010A0004746C8F86000FFF7CDFA064605E000BFE6
:1010B000FFF7C8FA801B02282BD828688001F7D4D4
:1010C000D4E907010843A16A2E4A490802EB01410D
:1010D000626A41EA8211084394F82C1040EA0161E7
:1010E000C9F8001001203866FFF7ACFA044606E0A4
:1010F0003EE000BFFFF7A6FA001B022809D82868C7
:101100008001F7D534E000BFFFF79CFA001B0228EE
:1011100002D90320BDE8F88F28688001F4D427E0C5
:101120000128F7D0D9F80000E26900F4800191426B
:101130001CD1226A00F03F01914217D147F6C071DD
:10114000626A0140B1EB821F10D1A26A4FF0FF33F7
:1011500000F4403103EB5202B1EB024F06D194F898
:101160002C1000F07060B0EB016F01D00120D1E7CE
:101170000020CFE70438024000004742800E47427B
:10118000007000400000FFFF10B5401EB0F1807FEE
:1011900001D3012010BD4FF0E02460610F216017E2
:1011A00000F053FB0020A06107202061002010BD4B
:1011B000FEE701684A69D24352050FD46FF480629A
:1011C0004A61002140F8301F202242738173026976
:1011D00042F0040202610173012070470020704751
:1011E0002DE9F84F0446C06A1E4693460D46216815
:1011F0000A6842F480620A60082807D0012805D0F6
:1012000010F5803F02D0206B112804D120680168BE
:1012100041F4807101604FF001195B46002249469C
:101220002046009600F0C6F84FF4007840B12068E0
:101230000068C00501D5C4F840800320BDE8F88FE0
:101240002069DFF884A0B0F5804F0FD00620216818
:1012500000EAD51747F0F000086133465A460AF114
:101260000601204600F0DAF858BB03E0E8B240F08F
:1012700001001CE02168E8B2086133465A46514635
:10128000204600F0CBF8E0B92068416981690091FF
:10129000016841F4807101605B46002249462046A6
:1012A000009600F087F80028C1D147F0F1002168CE
:1012B000086133465A465146204600F0AFF80028F0
:1012C000BCD00120BAE7000002000100F8B50446D6
:1012D000C06A1E460D461746082807D0012805D0CB
:1012E00010F5803F02D0206B122804D120680168DD
:1012F00041F480710160134600224FF00111204635
:10130000009600F057F840B120680068C00502D58B
:101310004FF4007020640320F8BD2069B0F5804FC1
:101320000ED00620216800EAD51040F0F0000861D8
:1013300033463A460B49204600F070F878B902E08F
:1013400005F0FE0000E0E8B2216808610549334677
:101350003A46891F204600F061F80028DCD00120C1
:10136000F8BD00000800010070B516460D460446A1
:101370000DE02046FFF71DFF08B1012070BD681C7D
:1013800005D0FFF75FF9801BA84207D835B1206868
:101390004069C0434007ECD4002070BD002044F8F1
:1013A000300F20216173A073216941F02001216178
:1013B0002073E2E72DE9F0471E4690460D460446AD
:1013C000C1F30747DDF8209008E0701C06D0FFF756
:1013D00039F9A0EB0900B0420FD876B12068012F8F
:1013E00018D0806925EA00000004000C14D0002108
:1013F0004145EAD00020BDE8F087002044F8300FD6
:1014000020216173A073216941F0200121612073C3
:101410000120F0E74069E5E70121E9E72DE9F04720
:101420009A4691460E46044600254FF02008C1F327
:10143000074725E020684069C043400514D4206870
:10144000016841F40071016021686FF480604861B7
:10145000256384F83D8084F83E50206C40F0040001
:10146000206484F83C501FE0B9F1FF3F08D0FFF73B
:10147000E9F8A0EB0A0149450CD8B9F1000F09D0F1
:101480002068012F13D0806926EA00000004000CB8
:101490000BD0CFE744F8305F84F80D80A573206946
:1014A00040F02000206125730120BDE8F0874069ED
:1014B000EAE72DE9F041002590460E460446202734
:1014C00017E04069C043C0060CD454F8301B6FF0DD
:1014D0001000486144F810596777A577206A2062A8
:1014E000257717E0FFF7AEF8A0EB0800B04208D868
:1014F0003EB120684169C9434906E2D40020BDE8F5
:10150000F08144F8305F6773A573206940F02000D4
:10151000206125730120F2E770B516460D4604469A
:101520000DE02046FFF745FE08B1012070BD681CA4
:1015300005D0FFF787F8801BA84207D835B120688F
:101540004069C0430006ECD4002070BD002044F880
:10155000300F20216173A073216941F020012161C6
:101560002073E2E730B587B014216846FEF7F9FE34
:1015700025480024016841F004010160016801F080
:1015800004010591016841F080010160016801F0EA
:1015900080010591016841F001010160016801F0DD
:1015A00001010591016841F0020101600068174DD9
:1015B00000F002000590002220212846FFF73CF8A9
:1015C0004FF4005000904FF40410CDE90104694637
:1015D0000F48FEF741FF0C2000900220CDE90104E6
:1015E0000720CDE9034069462846FEF735FF202055
:1015F00000900120CDE90104694628460394FEF7D6
:101600002BFF07B030BD0000303802400000024020
:10161000000802400D4810B50B4901600C494160BB
:1016200000214FF480428160C0E903124161816171
:10163000C1610162FFF70CF8002803D0BDE810403B
:10164000FEF7F5BE10BD0000005400401800002059
:10165000A0860100FEE7FEE7704700007CB501218F
:1016600090258DF80410012802D0022802D004E051
:10167000C22000E0D2208DF8050093208DF80600EE
:101680006424032301AA294616480094FFF794F91D
:1016900000208DF80400012301AA29461148009476
:1016A000FFF78AF9022301AA91210E480094FFF75F
:1016B00093F89DF805009DF8041000EB012080B21E
:1016C000A0F57F41FF3900D1002000F016F99FED11
:1016D000061B53EC112B00F023F900F0DDF800EEAF
:1016E000100A7CBD18000020000000000000C03F70
:1016F00010B502202DED028BFFF7B0FFDFED0D0AD4
:1017000030EE600A10EE100A00F008FA9FED0A1B96
:1017100053EC112B00F004F900F0BEF808EE100AAB
:101720003220FEF787FE9FED060A38EE400ABDEC38
:10173000028B10BD0020A244605C6C2BE4BCC33F54
:101740000000484310B501202DED028BFFF786FF06
:10175000DFED0D0A30EE600A10EE100A00F0DEF93F
:101760009FED0A1B53EC112B00F0DAF800F094F80F
:1017700008EE100A3220FEF75DFE9FED060A38EEF5
:10178000400ABDEC028B10BD00A0A04414EC13EC89
:1017900013ECC33F000048437047FFF7D7B9000080
:1017A00030B593B030216846FEF7DBFD14210CA85C
:1017B000FEF7D7FD1E480024016841F0805101600A
:1017C000006800F0805011901A48016821F44041EF
:1017D00041F4004101600068022500F4404011908E
:1017E000012003901020009506950490CDE9074054
:1017F0004FF4A870099004200A9007200B906846C7
:10180000FFF70CFB08B172B6FEE70F20CDE90C051F
:101810004FF48050CDE90E4002210CA81094FFF740
:1018200023FA002801D072B6FEE713B030BD0000E5
:1018300040380240007000400248016841F47001E5
:101840000160704788ED00E0FEE70907090E0028F7
:1018500004DB00F1E02080F80014704700F00F0076
:1018600000F1E02080F8141D70470000FFF776F9C2
:10187000FFF796FFFFF776FEFFF7CCFE054C00BFA3
:10188000FFF736FF84ED000AFFF75CFF84ED010AE5
:10189000F6E700000000002021F00042A2F16052B3
:1018A000B2F5801F01F0004328BFD2F17F6C0BD945
:1018B0005FEA001C43EAC20242EB507018BF704757
:1018C00028BF20F001007047B2F5801FBCBF18464A
:1018D00070474FEA410C1CF5001F02D2084600F089
:1018E00093B970B500F0C6F800000089FFF7F6BFA5
:1018F0004FF00040A0F580007047B0FA80F310FA76
:1019000003F10AD0C3F11D0303F580634FEA415090
:101910004FEA035202EBD12170474FF000007047AD
:10192000DFF848C170B51CEA111E1EBF1CEA131572
:101930009EEA0C0F95EA0C0F00F06F8081EA030419
:1019400023EA4C134EEAD47E21EA4C1141F4801173
:1019500043F48013AE44A1FB024CA0FB0365AEF13F
:101960007F7E361955EB0C05A1FB034C4CF10003AF
:10197000A0FB021C16EB0C06654153F10003094263
:1019800018BF46F0010613F4007F0BD14FEA033174
:101990004FEA0530340341EA155140EA16506FF022
:1019A00003020AE04FEAC3214FEAC520F40241EAEC
:1019B000555140EA56506FF0020202EB2E4201EB05
:1019C000025585EACE710AD05FEA440C18BF24F0B4
:1019D000004450F1000041F1000120EAD47040F2CF
:1019E000FE7C624500D270BDA84214BF4FF0804417
:1019F0004FF04044002E08BF0024BEF1806FA8BF06
:101A0000A1F1C041BDE8704080F282804FF000003B
:101A100001F1C04101F0004170479EEA0C0F0CEA51
:101A2000131518BF95EA0C0F06D04FF0000081EA9D
:101A3000030E0EF0004170BD00F01CF88900013E5D
:101A400000F007B800F009B84FEA430C5FEA5C5CAD
:101A500008D081EA030100F05BB84FEA410C5FEA6D
:101A60005C5CF6D14FF00000014970470000FF07B1
:101A70000000F87F0EF1020E2EF0030E5EF8046BEC
:101A8000364205D4012A43EB030515F5001F12D891
:101A9000012841EB010C1CF5001F0CD80ED14FEAB8
:101AA000D17C15F5001F0CEB4C0C0CF1020C08BF9F
:101AB0004CEBD37C04E04FF0080C01E04FEAD37C00
:101AC0000CEB4C0526FA05F606F00706B6F1040CF9
:101AD00006D20EEB860CBDE870404CF0010C60475E
:101AE000DFE80CF0090B02024FF000414FF000005C
:101AF000A1F5002170BD19461046012851EB0104E3
:101B000018BFD4F5001484BF002001F0004170BD5F
:101B10000808A0F500114FEA3101704743004FEA71
:101B2000D30C4FEA3C0C43401FBF40070CF16051FF
:101B300013F0FE4F70471CF0006F03D100200CF033
:101B4000004170470CF0004343EA507010B540EA82
:101B5000CC0000F00EF800BF000000924FEA000138
:101B6000FFF7D6BF4FF000414FF00000A1F5002174
:101B700070470EF1020E2EF0030E5EF8044B244265
:101B800004D44FEA4102B2F17F4F11D84FEA40032B
:101B9000B3F17F4F0CD80ED14FEAD07CB2F17F4F1A
:101BA0000CEB4C0C0CF1020C08BF4CEBD17C04E0AC
:101BB0004FF0080C01E04FEAD17C0CEB4C0324FA07
:101BC00003F404F00704B4F1040C06D20EEB840C09
:101BD000BDE810404CF0010C6047DFE80CF007084E
:101BE00002024FF00040A0F5800010BD0846420000
:101BF00018BFD2F1807288BF00F0004010BD4FF0D6
:101C00004070E1EE100A7047FF2141EAD050C00554
:101C100070470000000000000000010203040607F6
:101C20000809000000000102030400004C1C000829
:101C30000000002018000000D0010008641C00080B
:101C400018000020B8060000EC01000800000000A9
:101C50000000000001000000100000000000000073
:041C60000024F40068
:040000050800019559
:00000001FF
